{
  "contractName": "TodoList",
  "abi": [
    {
      "inputs": [],
      "stateMutability": "nonpayable",
      "type": "constructor"
    },
    {
      "anonymous": false,
      "inputs": [
        {
          "indexed": false,
          "internalType": "uint256",
          "name": "id",
          "type": "uint256"
        },
        {
          "indexed": false,
          "internalType": "bool",
          "name": "completed",
          "type": "bool"
        }
      ],
      "name": "TaskCompleted",
      "type": "event"
    },
    {
      "anonymous": false,
      "inputs": [
        {
          "indexed": false,
          "internalType": "uint256",
          "name": "id",
          "type": "uint256"
        },
        {
          "indexed": false,
          "internalType": "string",
          "name": "content",
          "type": "string"
        },
        {
          "indexed": false,
          "internalType": "bool",
          "name": "completed",
          "type": "bool"
        }
      ],
      "name": "TaskCreated",
      "type": "event"
    },
    {
      "inputs": [],
      "name": "taskCount",
      "outputs": [
        {
          "internalType": "uint256",
          "name": "",
          "type": "uint256"
        }
      ],
      "stateMutability": "view",
      "type": "function",
      "constant": true
    },
    {
      "inputs": [
        {
          "internalType": "uint256",
          "name": "",
          "type": "uint256"
        }
      ],
      "name": "tasks",
      "outputs": [
        {
          "internalType": "uint256",
          "name": "id",
          "type": "uint256"
        },
        {
          "internalType": "string",
          "name": "content",
          "type": "string"
        },
        {
          "internalType": "bool",
          "name": "completed",
          "type": "bool"
        }
      ],
      "stateMutability": "view",
      "type": "function",
      "constant": true
    },
    {
      "inputs": [],
      "name": "getOwnerTasks",
      "outputs": [
        {
          "components": [
            {
              "internalType": "uint256",
              "name": "id",
              "type": "uint256"
            },
            {
              "internalType": "string",
              "name": "content",
              "type": "string"
            },
            {
              "internalType": "bool",
              "name": "completed",
              "type": "bool"
            }
          ],
          "internalType": "struct TodoList.Task[]",
          "name": "",
          "type": "tuple[]"
        }
      ],
      "stateMutability": "view",
      "type": "function",
      "constant": true
    },
    {
      "inputs": [],
      "name": "getOwnerTaskCount",
      "outputs": [
        {
          "internalType": "uint256",
          "name": "",
          "type": "uint256"
        }
      ],
      "stateMutability": "view",
      "type": "function",
      "constant": true
    },
    {
      "inputs": [
        {
          "internalType": "string",
          "name": "_content",
          "type": "string"
        }
      ],
      "name": "createTask",
      "outputs": [],
      "stateMutability": "nonpayable",
      "type": "function"
    },
    {
      "inputs": [
        {
          "internalType": "uint256",
          "name": "_id",
          "type": "uint256"
        }
      ],
      "name": "toggleCompleted",
      "outputs": [],
      "stateMutability": "nonpayable",
      "type": "function"
    }
  ],
  "bytecode": "0x60806040526000805534801561001457600080fd5b50610e7d806100246000396000f3fe608060405234801561001057600080fd5b506004361061007f576000357c010000000000000000000000000000000000000000000000000000000090048063111002aa14610084578063455f5024146100a05780636743a1c3146100bc5780638d977672146100da578063ad8f434d1461010c578063b6cb58a51461012a575b600080fd5b61009e600480360381019061009991906109c5565b610148565b005b6100ba60048036038101906100b59190610a44565b6102a5565b005b6100c4610347565b6040516100d19190610a80565b60405180910390f35b6100f460048036038101906100ef9190610a44565b610391565b60405161010393929190610b3e565b60405180910390f35b610114610460565b6040516101219190610cf6565b60405180910390f35b61013261079f565b60405161013f9190610a80565b60405180910390f35b6000805490506000604051806060016040528083815260200184815260200160001515815250905060018190806001815401808255809150506001900390600052602060002090600302016000909190919091506000820151816000015560208201518160010190805190602001906101c29291906107a5565b5060408201518160020160006101000a81548160ff0219169083151502179055505050600360003373ffffffffffffffffffffffffffffffffffffffff1673ffffffffffffffffffffffffffffffffffffffff1681526020019081526020016000208290806001815401808255809150506001900390600052602060002001600090919091909150557f05d0fb833127fc08168556d0e7ca9554fc3f6bc843b3b7d2bf1c35aea6bab66060005484600060405161028193929190610b3e565b60405180910390a160008081548092919061029b90610d47565b9190505550505050565b6000600182815481106102bb576102ba610d8f565b5b906000526020600020906003020190508060020160009054906101000a900460ff16158160020160006101000a81548160ff0219169083151502179055507fe21fa966ca5cd02748c0752352d18c48165e61cb55b4c29cccf924b5a95fcff1828260020160009054906101000a900460ff1660405161033b929190610dbe565b60405180910390a15050565b6000600360003373ffffffffffffffffffffffffffffffffffffffff1673ffffffffffffffffffffffffffffffffffffffff16815260200190815260200160002080549050905090565b600181815481106103a157600080fd5b90600052602060002090600302016000915090508060000154908060010180546103ca90610e16565b80601f01602080910402602001604051908101604052809291908181526020018280546103f690610e16565b80156104435780601f1061041857610100808354040283529160200191610443565b820191906000526020600020905b81548152906001019060200180831161042657829003601f168201915b5050505050908060020160009054906101000a900460ff16905083565b60606000600360003373ffffffffffffffffffffffffffffffffffffffff1673ffffffffffffffffffffffffffffffffffffffff1681526020019081526020016000208054806020026020016040519081016040528092919081815260200182805480156104ed57602002820191906000526020600020905b8154815260200190600101908083116104d9575b505050505090506000815167ffffffffffffffff8111156105115761051061089a565b5b60405190808252806020026020018201604052801561054a57816020015b61053761082b565b81526020019060019003908161052f5790505b50905060005b825181101561068857600183828151811061056e5761056d610d8f565b5b60200260200101518154811061058757610586610d8f565b5b9060005260206000209060030201604051806060016040529081600082015481526020016001820180546105ba90610e16565b80601f01602080910402602001604051908101604052809291908181526020018280546105e690610e16565b80156106335780601f1061060857610100808354040283529160200191610633565b820191906000526020600020905b81548152906001019060200180831161061657829003601f168201915b505050505081526020016002820160009054906101000a900460ff16151515158152505082828151811061066a57610669610d8f565b5b6020026020010181905250808061068090610d47565b915050610550565b506001805480602002602001604051908101604052809291908181526020016000905b828210156107945783829060005260206000209060030201604051806060016040529081600082015481526020016001820180546106e890610e16565b80601f016020809104026020016040519081016040528092919081815260200182805461071490610e16565b80156107615780601f1061073657610100808354040283529160200191610761565b820191906000526020600020905b81548152906001019060200180831161074457829003601f168201915b505050505081526020016002820160009054906101000a900460ff161515151581525050815260200190600101906106ab565b505050509250505090565b60005481565b8280546107b190610e16565b90600052602060002090601f0160209004810192826107d3576000855561081a565b82601f106107ec57805160ff191683800117855561081a565b8280016001018555821561081a579182015b828111156108195782518255916020019190600101906107fe565b5b509050610827919061084e565b5090565b604051806060016040528060008152602001606081526020016000151581525090565b5b8082111561086757600081600090555060010161084f565b5090565b6000604051905090565b600080fd5b600080fd5b600080fd5b600080fd5b6000601f19601f8301169050919050565b7f4e487b7100000000000000000000000000000000000000000000000000000000600052604160045260246000fd5b6108d282610889565b810181811067ffffffffffffffff821117156108f1576108f061089a565b5b80604052505050565b600061090461086b565b905061091082826108c9565b919050565b600067ffffffffffffffff8211156109305761092f61089a565b5b61093982610889565b9050602081019050919050565b82818337600083830152505050565b600061096861096384610915565b6108fa565b90508281526020810184848401111561098457610983610884565b5b61098f848285610946565b509392505050565b600082601f8301126109ac576109ab61087f565b5b81356109bc848260208601610955565b91505092915050565b6000602082840312156109db576109da610875565b5b600082013567ffffffffffffffff8111156109f9576109f861087a565b5b610a0584828501610997565b91505092915050565b6000819050919050565b610a2181610a0e565b8114610a2c57600080fd5b50565b600081359050610a3e81610a18565b92915050565b600060208284031215610a5a57610a59610875565b5b6000610a6884828501610a2f565b91505092915050565b610a7a81610a0e565b82525050565b6000602082019050610a956000830184610a71565b92915050565b600081519050919050565b600082825260208201905092915050565b60005b83811015610ad5578082015181840152602081019050610aba565b83811115610ae4576000848401525b50505050565b6000610af582610a9b565b610aff8185610aa6565b9350610b0f818560208601610ab7565b610b1881610889565b840191505092915050565b60008115159050919050565b610b3881610b23565b82525050565b6000606082019050610b536000830186610a71565b8181036020830152610b658185610aea565b9050610b746040830184610b2f565b949350505050565b600081519050919050565b600082825260208201905092915050565b6000819050602082019050919050565b610bb181610a0e565b82525050565b600082825260208201905092915050565b6000610bd382610a9b565b610bdd8185610bb7565b9350610bed818560208601610ab7565b610bf681610889565b840191505092915050565b610c0a81610b23565b82525050565b6000606083016000830151610c286000860182610ba8565b5060208301518482036020860152610c408282610bc8565b9150506040830151610c556040860182610c01565b508091505092915050565b6000610c6c8383610c10565b905092915050565b6000602082019050919050565b6000610c8c82610b7c565b610c968185610b87565b935083602082028501610ca885610b98565b8060005b85811015610ce45784840389528151610cc58582610c60565b9450610cd083610c74565b925060208a01995050600181019050610cac565b50829750879550505050505092915050565b60006020820190508181036000830152610d108184610c81565b905092915050565b7f4e487b7100000000000000000000000000000000000000000000000000000000600052601160045260246000fd5b6000610d5282610a0e565b91507fffffffffffffffffffffffffffffffffffffffffffffffffffffffffffffffff8203610d8457610d83610d18565b5b600182019050919050565b7f4e487b7100000000000000000000000000000000000000000000000000000000600052603260045260246000fd5b6000604082019050610dd36000830185610a71565b610de06020830184610b2f565b9392505050565b7f4e487b7100000000000000000000000000000000000000000000000000000000600052602260045260246000fd5b60006002820490506001821680610e2e57607f821691505b602082108103610e4157610e40610de7565b5b5091905056fea26469706673582212200b8945b604288df7afbc84b3134d6e422eb6a7651afdc69f55a2e1e0bdd6a72764736f6c634300080d0033",
  "immutableReferences": {},
  "source": "// SPDX-License-Identifier: MIT\n\npragma solidity ^0.8.7;\n\ncontract TodoList {\n    \n    event TaskCreated(uint256 id, string content, bool completed);\n    event TaskCompleted(uint256 id, bool completed);\n\n    struct Task {\n        uint256 id;\n        string content;\n        bool completed;\n    }\n\n    uint256 public taskCount = 0;\n\n    Task[] public tasks;\n    mapping (uint => address) taskToOwner;\n    mapping (address => uint[]) ownerTaskIds;\n\n    // REMOVE\n    // mapping (address => uint) ownerTaskCount;\n    // mapping (address => Task[]) ownerTasks;\n\n    constructor() {}\n\n    function getOwnerTasks() public view returns (Task[] memory) {\n        uint[] memory taskIds = ownerTaskIds[msg.sender];\n        Task[] memory _tasks = new Task[](taskIds.length);\n\n        for (uint i = 0; i < taskIds.length; i++) {\n            _tasks[i] = tasks[taskIds[i]];\n            // _tasks.push(tasks[taskIds[i]]);\n        }\n        return tasks;\n        // return ownerTasks[msg.sender];\n    }\n\n    function getOwnerTaskCount() public view returns (uint) {\n        return ownerTaskIds[msg.sender].length;\n        // return ownerTaskCount[msg.sender];\n    }\n\n    function createTask(string memory _content) public {\n        // Set id to current taskCount\n        uint id = taskCount;\n\n        // Create new task\n        Task memory _task = Task(id, _content, false);\n\n        // Add task object to tasks array\n        tasks.push(_task);\n\n        // Add task id to ownerTaskIds\n        ownerTaskIds[msg.sender].push(id);\n\n        // Task storage task = tasks[id];\n        // taskToOwner[id] = msg.sender;\n        // ownerTaskIds.push(id);\n\n        // REMOVE\n        // ownerTasks[msg.sender].push(task);\n\n        // taskToOwner[id] = msg.sender;\n        // ownerTaskCount[msg.sender]++;\n        // ownerTasks[msg.sender].push(_task);\n\n        emit TaskCreated(taskCount, _content, false);\n        taskCount++;\n    }\n\n    function toggleCompleted(uint256 _id) public {\n        Task storage _task = tasks[_id];\n        _task.completed = !_task.completed;\n        // Task memory _task = tasks[_id];\n        // _task.completed = !_task.completed;\n        // tasks[_id] = _task;\n        emit TaskCompleted(_id, _task.completed);\n    }\n}\n",
  "sourcePath": "/Users/markjtaylorroberts/Documents/Projects/eth-todo-list/blockchain/contracts/TodoList.sol",
  "compiler": {
    "name": "solc",
    "version": "0.8.13+commit.abaa5c0e.Emscripten.clang"
  },
  "schemaVersion": "3.4.4",
  "updatedAt": "2022-03-28T04:04:22.355Z",
  "networkType": "ethereum",
  "devdoc": {
    "kind": "dev",
    "methods": {},
    "version": 1
  },
  "userdoc": {
    "kind": "user",
    "methods": {},
    "version": 1
  }
}