{
  "contractName": "TodoList",
  "abi": [
    {
      "inputs": [],
      "stateMutability": "nonpayable",
      "type": "constructor"
    },
    {
      "anonymous": false,
      "inputs": [
        {
          "indexed": false,
          "internalType": "uint256",
          "name": "id",
          "type": "uint256"
        },
        {
          "indexed": false,
          "internalType": "bool",
          "name": "completed",
          "type": "bool"
        }
      ],
      "name": "TaskCompleted",
      "type": "event"
    },
    {
      "anonymous": false,
      "inputs": [
        {
          "indexed": false,
          "internalType": "uint256",
          "name": "id",
          "type": "uint256"
        },
        {
          "indexed": false,
          "internalType": "string",
          "name": "content",
          "type": "string"
        },
        {
          "indexed": false,
          "internalType": "bool",
          "name": "completed",
          "type": "bool"
        }
      ],
      "name": "TaskCreated",
      "type": "event"
    },
    {
      "inputs": [],
      "name": "taskCount",
      "outputs": [
        {
          "internalType": "uint256",
          "name": "",
          "type": "uint256"
        }
      ],
      "stateMutability": "view",
      "type": "function",
      "constant": true
    },
    {
      "inputs": [
        {
          "internalType": "uint256",
          "name": "",
          "type": "uint256"
        }
      ],
      "name": "taskToOwner",
      "outputs": [
        {
          "internalType": "address",
          "name": "",
          "type": "address"
        }
      ],
      "stateMutability": "view",
      "type": "function",
      "constant": true
    },
    {
      "inputs": [
        {
          "internalType": "uint256",
          "name": "",
          "type": "uint256"
        }
      ],
      "name": "tasks",
      "outputs": [
        {
          "internalType": "uint256",
          "name": "id",
          "type": "uint256"
        },
        {
          "internalType": "string",
          "name": "content",
          "type": "string"
        },
        {
          "internalType": "bool",
          "name": "completed",
          "type": "bool"
        }
      ],
      "stateMutability": "view",
      "type": "function",
      "constant": true
    },
    {
      "inputs": [],
      "name": "getOwnerTasks",
      "outputs": [
        {
          "components": [
            {
              "internalType": "uint256",
              "name": "id",
              "type": "uint256"
            },
            {
              "internalType": "string",
              "name": "content",
              "type": "string"
            },
            {
              "internalType": "bool",
              "name": "completed",
              "type": "bool"
            }
          ],
          "internalType": "struct TodoList.Task[]",
          "name": "",
          "type": "tuple[]"
        }
      ],
      "stateMutability": "view",
      "type": "function",
      "constant": true
    },
    {
      "inputs": [],
      "name": "getOwnerTaskCount",
      "outputs": [
        {
          "internalType": "uint256",
          "name": "",
          "type": "uint256"
        }
      ],
      "stateMutability": "view",
      "type": "function",
      "constant": true
    },
    {
      "inputs": [
        {
          "internalType": "string",
          "name": "_content",
          "type": "string"
        }
      ],
      "name": "createTask",
      "outputs": [],
      "stateMutability": "nonpayable",
      "type": "function"
    },
    {
      "inputs": [
        {
          "internalType": "uint256",
          "name": "_id",
          "type": "uint256"
        }
      ],
      "name": "toggleCompleted",
      "outputs": [],
      "stateMutability": "nonpayable",
      "type": "function"
    }
  ],
  "bytecode": "0x60806040526000805534801561001457600080fd5b50610f41806100246000396000f3fe608060405234801561001057600080fd5b506004361061009a576000357c0100000000000000000000000000000000000000000000000000000000900480636743a1c3116100785780636743a1c3146101075780638d97767214610125578063ad8f434d14610157578063b6cb58a5146101755761009a565b8063111002aa1461009f578063455f5024146100bb5780636641c6c4146100d7575b600080fd5b6100b960048036038101906100b49190610a2d565b610193565b005b6100d560048036038101906100d09190610aac565b6103e3565b005b6100f160048036038101906100ec9190610aac565b61058e565b6040516100fe9190610b1a565b60405180910390f35b61010f6105c1565b60405161011c9190610b44565b60405180910390f35b61013f600480360381019061013a9190610aac565b610608565b60405161014e93929190610c02565b60405180910390f35b61015f6106d7565b60405161016c9190610dba565b60405180910390f35b61017d61082a565b60405161018a9190610b44565b60405180910390f35b60008054905060006040518060600160405280838152602001848152602001600015158152509050600181908060018154018082558091505060019003906000526020600020906003020160009091909190915060008201518160000155602082015181600101908051906020019061020d929190610830565b5060408201518160020160006101000a81548160ff0219169083151502179055505050336002600084815260200190815260200160002060006101000a81548173ffffffffffffffffffffffffffffffffffffffff021916908373ffffffffffffffffffffffffffffffffffffffff160217905550600360003373ffffffffffffffffffffffffffffffffffffffff1673ffffffffffffffffffffffffffffffffffffffff16815260200190815260200160002060008154809291906102d290610e0b565b9190505550600460003373ffffffffffffffffffffffffffffffffffffffff1673ffffffffffffffffffffffffffffffffffffffff168152602001908152602001600020819080600181540180825580915050600190039060005260206000209060030201600090919091909150600082015181600001556020820151816001019080519060200190610366929190610830565b5060408201518160020160006101000a81548160ff02191690831515021790555050507f05d0fb833127fc08168556d0e7ca9554fc3f6bc843b3b7d2bf1c35aea6bab6606000548460006040516103bf93929190610c02565b60405180910390a16000808154809291906103d990610e0b565b9190505550505050565b6000600182815481106103f9576103f8610e53565b5b90600052602060002090600302016040518060600160405290816000820154815260200160018201805461042c90610eb1565b80601f016020809104026020016040519081016040528092919081815260200182805461045890610eb1565b80156104a55780601f1061047a576101008083540402835291602001916104a5565b820191906000526020600020905b81548152906001019060200180831161048857829003601f168201915b505050505081526020016002820160009054906101000a900460ff161515151581525050905080604001511581604001901515908115158152505080600183815481106104f5576104f4610e53565b5b9060005260206000209060030201600082015181600001556020820151816001019080519060200190610529929190610830565b5060408201518160020160006101000a81548160ff0219169083151502179055509050507fe21fa966ca5cd02748c0752352d18c48165e61cb55b4c29cccf924b5a95fcff1828260400151604051610582929190610ee2565b60405180910390a15050565b60026020528060005260406000206000915054906101000a900473ffffffffffffffffffffffffffffffffffffffff1681565b6000600360003373ffffffffffffffffffffffffffffffffffffffff1673ffffffffffffffffffffffffffffffffffffffff16815260200190815260200160002054905090565b6001818154811061061857600080fd5b906000526020600020906003020160009150905080600001549080600101805461064190610eb1565b80601f016020809104026020016040519081016040528092919081815260200182805461066d90610eb1565b80156106ba5780601f1061068f576101008083540402835291602001916106ba565b820191906000526020600020905b81548152906001019060200180831161069d57829003601f168201915b5050505050908060020160009054906101000a900460ff16905083565b6060600460003373ffffffffffffffffffffffffffffffffffffffff1673ffffffffffffffffffffffffffffffffffffffff168152602001908152602001600020805480602002602001604051908101604052809291908181526020016000905b8282101561082157838290600052602060002090600302016040518060600160405290816000820154815260200160018201805461077590610eb1565b80601f01602080910402602001604051908101604052809291908181526020018280546107a190610eb1565b80156107ee5780601f106107c3576101008083540402835291602001916107ee565b820191906000526020600020905b8154815290600101906020018083116107d157829003601f168201915b505050505081526020016002820160009054906101000a900460ff16151515158152505081526020019060010190610738565b50505050905090565b60005481565b82805461083c90610eb1565b90600052602060002090601f01602090048101928261085e57600085556108a5565b82601f1061087757805160ff19168380011785556108a5565b828001600101855582156108a5579182015b828111156108a4578251825591602001919060010190610889565b5b5090506108b291906108b6565b5090565b5b808211156108cf5760008160009055506001016108b7565b5090565b6000604051905090565b600080fd5b600080fd5b600080fd5b600080fd5b6000601f19601f8301169050919050565b7f4e487b7100000000000000000000000000000000000000000000000000000000600052604160045260246000fd5b61093a826108f1565b810181811067ffffffffffffffff8211171561095957610958610902565b5b80604052505050565b600061096c6108d3565b90506109788282610931565b919050565b600067ffffffffffffffff82111561099857610997610902565b5b6109a1826108f1565b9050602081019050919050565b82818337600083830152505050565b60006109d06109cb8461097d565b610962565b9050828152602081018484840111156109ec576109eb6108ec565b5b6109f78482856109ae565b509392505050565b600082601f830112610a1457610a136108e7565b5b8135610a248482602086016109bd565b91505092915050565b600060208284031215610a4357610a426108dd565b5b600082013567ffffffffffffffff811115610a6157610a606108e2565b5b610a6d848285016109ff565b91505092915050565b6000819050919050565b610a8981610a76565b8114610a9457600080fd5b50565b600081359050610aa681610a80565b92915050565b600060208284031215610ac257610ac16108dd565b5b6000610ad084828501610a97565b91505092915050565b600073ffffffffffffffffffffffffffffffffffffffff82169050919050565b6000610b0482610ad9565b9050919050565b610b1481610af9565b82525050565b6000602082019050610b2f6000830184610b0b565b92915050565b610b3e81610a76565b82525050565b6000602082019050610b596000830184610b35565b92915050565b600081519050919050565b600082825260208201905092915050565b60005b83811015610b99578082015181840152602081019050610b7e565b83811115610ba8576000848401525b50505050565b6000610bb982610b5f565b610bc38185610b6a565b9350610bd3818560208601610b7b565b610bdc816108f1565b840191505092915050565b60008115159050919050565b610bfc81610be7565b82525050565b6000606082019050610c176000830186610b35565b8181036020830152610c298185610bae565b9050610c386040830184610bf3565b949350505050565b600081519050919050565b600082825260208201905092915050565b6000819050602082019050919050565b610c7581610a76565b82525050565b600082825260208201905092915050565b6000610c9782610b5f565b610ca18185610c7b565b9350610cb1818560208601610b7b565b610cba816108f1565b840191505092915050565b610cce81610be7565b82525050565b6000606083016000830151610cec6000860182610c6c565b5060208301518482036020860152610d048282610c8c565b9150506040830151610d196040860182610cc5565b508091505092915050565b6000610d308383610cd4565b905092915050565b6000602082019050919050565b6000610d5082610c40565b610d5a8185610c4b565b935083602082028501610d6c85610c5c565b8060005b85811015610da85784840389528151610d898582610d24565b9450610d9483610d38565b925060208a01995050600181019050610d70565b50829750879550505050505092915050565b60006020820190508181036000830152610dd48184610d45565b905092915050565b7f4e487b7100000000000000000000000000000000000000000000000000000000600052601160045260246000fd5b6000610e1682610a76565b91507fffffffffffffffffffffffffffffffffffffffffffffffffffffffffffffffff8203610e4857610e47610ddc565b5b600182019050919050565b7f4e487b7100000000000000000000000000000000000000000000000000000000600052603260045260246000fd5b7f4e487b7100000000000000000000000000000000000000000000000000000000600052602260045260246000fd5b60006002820490506001821680610ec957607f821691505b602082108103610edc57610edb610e82565b5b50919050565b6000604082019050610ef76000830185610b35565b610f046020830184610bf3565b939250505056fea2646970667358221220237c3ad37a60659b2c616dc37a5b46b7efa781a1ef90b8961268e98ec831261c64736f6c634300080d0033",
  "immutableReferences": {},
  "source": "// SPDX-License-Identifier: MIT\n\npragma solidity ^0.8.7;\n\ncontract TodoList {\n    \n    event TaskCreated(uint256 id, string content, bool completed);\n    event TaskCompleted(uint256 id, bool completed);\n\n    struct Task {\n        uint256 id;\n        string content;\n        bool completed;\n    }\n\n    uint256 public taskCount = 0;\n\n    Task[] public tasks;\n    mapping (uint => address) public taskToOwner;\n    mapping (address => uint) ownerTaskCount;\n    mapping (address => Task[]) ownerTasks;\n\n    constructor() {}\n\n    function getOwnerTasks() public view returns (Task[] memory) {\n        return ownerTasks[msg.sender];\n    }\n\n    function getOwnerTaskCount() public view returns (uint) {\n        return ownerTaskCount[msg.sender];\n    }\n\n    function createTask(string memory _content) public {\n        uint id = taskCount;\n\n        Task memory _task = Task(id, _content, false);\n        tasks.push(_task);\n\n        taskToOwner[id] = msg.sender;\n        ownerTaskCount[msg.sender]++;\n        ownerTasks[msg.sender].push(_task);\n\n        emit TaskCreated(taskCount, _content, false);\n        taskCount++;\n    }\n\n    function toggleCompleted(uint256 _id) public {\n        Task memory _task = tasks[_id];\n        _task.completed = !_task.completed;\n        tasks[_id] = _task;\n        emit TaskCompleted(_id, _task.completed);\n    }\n}\n",
  "sourcePath": "/Users/markjtaylorroberts/Documents/Projects/eth-todo-list/blockchain/contracts/TodoList.sol",
  "compiler": {
    "name": "solc",
    "version": "0.8.13+commit.abaa5c0e.Emscripten.clang"
  },
  "schemaVersion": "3.4.4",
  "updatedAt": "2022-03-28T01:43:22.089Z",
  "networkType": "ethereum",
  "devdoc": {
    "kind": "dev",
    "methods": {},
    "version": 1
  },
  "userdoc": {
    "kind": "user",
    "methods": {},
    "version": 1
  }
}